:04000000C2EF38F023
:0800080067EF00F000000000AA
:100010000000000000000000046ED8CF05F0E0CF23
:1000200006F00001E9CF0CF0EACF07F0E1CF08F0CD
:10003000E2CF09F0D9CF0AF0DACF0BF0F3CF12F00C
:10004000F4CF13F0FACF14F0F5CF15F0F6CF16F089
:10005000F7CF17F000C00EF001C00FF002C010F093
:1000600003C011F0F2AA38EF00F0F2B49FEF06F0EF
:100070009DA03EEF00F09EB074EF1AF0F4EF00F098
:100080000EC000F00FC001F010C002F011C003F06C
:100090000CC0E9FF07C0EAFF078E08C0E1FF09C0F6
:1000A000E2FF0AC0D9FF0BC0DAFF12C0F3FF13C092
:1000B000F4FF14C0FAFF15C0F5FF16C0F6FF17C015
:1000C000F7FF045006C0E0FF05C0D8FF10001A6E0D
:1000D000D8CF1BF0E0CF1CF00001E9CF22F0EACF2F
:1000E0001DF0E1CF1EF0E2CF1FF0D9CF20F0DACF24
:1000F00021F0F3CF28F0F4CF29F0FACF2AF0F5CF92
:100100002BF0F6CF2CF0F7CF2DF000C024F001C07B
:1001100025F002C026F003C027F09DAA93EF00F05F
:100120009EBAC8EF00F0F4EF00F024C000F025C044
:1001300001F026C002F027C003F022C0E9FF1DC075
:10014000EAFF1D8E1EC0E1FF1FC0E2FF20C0D9FFE5
:1001500021C0DAFF28C0F3FF29C0F4FF2AC0FAFF4C
:100160002BC0F5FF2CC0F6FF2DC0F7FF1A501CC0A6
:10017000E0FF1BC0D8FF10009EAAFED7ABCF2FF028
:10018000AECF01F02FA202D0AB98AB88C9EF00F040
:10019000F3D701C093F3030193513C0805E101013A
:1001A000C76BC1891DD0030193510D0804E1010102
:1001B000C18716D003010101C1A904D093C3C6F1C0
:1001C000C1990ED0C751C72B036AB20FE96E010E59
:1001D0000320EA6E93C3EFFFC7510A0801E1C76B22
:1001E0009E9A000195EF00F0A1AA01D0A09A40EFDD
:1001F00000F002011935006E0036FC0E0016C250E8
:10020000C30B0010C26E100E006E002EFED7000051
:10021000C282C2B2FED7C4CF03F0C3CF01F0C4CFB5
:1002200002F00001000C016A026A006A036A02011E
:10023000235102E1225118E0100E246FD89020378C
:100240002137003603362351035C02E12251005C62
:1002500007E32251005ED8A003062351035ED88035
:1002600001360236242FEAD7000177EF01F00201B0
:100270001F6B1E6B0101825340E07FA73ED0C85127
:10028000C82B006ED89000360050036A830FE96EC9
:10029000010E0320EA6E1CC2ECFFED521BC2EFFF01
:1002A00002011D6B0101825102011D5D11E2D89016
:1002B0001D35036A830FE96E010E0320EA6EECCF51
:1002C00003F0ED52EF501E2703501F231D2BEAD7DA
:1002D00001018251C85D01E1C86B1FC221F21EC23B
:1002E00020F20201236B82C122F200019CD702C0DE
:1002F00003F002C002F007D006D01BC201F01CC2FE
:1003000002F0000100D091EF01F07EC119F271DF1F
:1003100002C01AF201C019F202C01CF201C01BF2A5
:10032000A6D70250000C8E0E006E1AC201F019C240
:1003300002F0036A01AE05D0011E021E022A01E18D
:10034000012A015209E102C001F0026A080E005EB2
:10035000015202E1006A0DD0D89001BE04D00236ED
:1003600001360006F9D702011AAF02D0000101D010
:10037000019E0001000C03018351D8B4A5D08F6FFA
:100380008751D8B4A1D08F5F05E37F0E8F27D8B0F7
:100390009BD006D0810E8F5FD8A096D0D8B494D0D1
:1003A0008FC300F0016A026A036A8E6B84C38DF307
:1003B0008D8F85C38CF386C38BF3190E8F6F8A5193
:1003C0008B5F0DE2010E8C5F0AE28D5F08E28E5FAB
:1003D00006E28E2B8D2B8C2B8A518B2728D08951AE
:1003E0008C5F12E2010E8D5F0FE28E5F0DE28E2BAD
:1003F0008D2B89518C278A518B2719E38C2B17E180
:100400008D2B15E18E2B13D0885180098D5F0EE264
:10041000010E8E5F0BE28E2B885180098D2789514A
:100420008C27E9E38D2BE7E18E2BE5D703808F2F17
:1004300001D00BD0D8908B378C378D378E37D89032
:100440000336023601369037BAD790A106D0D8903D
:10045000013202320332903302D0000635E090BF01
:100460001ED0D8908B378C378D378E378A518B5F63
:1004700007E2010E8C5F04E28D5F02E28E5F1AE3F9
:1004800089518C5F05E2010E8D5F02E28E5F12E3FF
:10049000885180098D5F03E2010E8E5F0BE3032A12
:1004A00009E1022A07E1012A05E1002A0DE00132F3
:1004B0000232033284C38FF388518F1B8FAF02D077
:1004C000018E06D0019E04D0006A016A026A036AA6
:1004D0000001000C8E0E006E16C201F015C202F073
:1004E000036A015209E102C001F0026A080E005ECF
:1004F000015202E1006A08D0D89001BE04D0023651
:1005000001360006F9D7019E000C03012E51D8B424
:1005100071D0006E3251D8B46DD0002604E3810E44
:10052000002668E204D07F0E005E64E363E02FC320
:1005300036F33351361B2F8F338F31513503F4CFC0
:1005400038F330513403F4CF03F0F3CF37F33503EE
:10055000F3503827F4503723000E0322315134036F
:10056000F3503827F4503723000E026A0322022288
:100570002F513503F3503727F4500322000E022287
:100580002F513403F3500326F4500222000E016A67
:10059000012231513303F3503727F4500322000E68
:1005A0000222012230513303F3500326F450022279
:1005B000000E01222F513303F3500226F450012282
:1005C000002A01BE05D03737033602360136000651
:1005D000000E37AF0AD0032A02220122015005E1A2
:1005E000025003E1035001E1002A36BF018E36AF0D
:1005F000019E04D0006A016A026A036A0001000CCD
:10060000800ED8A202D00301881B03018D6B8E6B74
:1006100084C38CF388518C1B8351D8B4DFD08B6F8B
:10062000006E8751D8B4E3D08B5FD8B483D03EE35B
:1006300088C391F3918F89C390F38AC38FF38E6B34
:10064000D890913390338F338E338B2FF8D78CAF74
:1006500003D08D81E0D08D918B918D89030EEA6E50
:10066000860EE96EEBD08D998CBF0AD08BA113D08A
:10067000913390338F338E33002AD8B4C7D00BD048
:1006800091BF0CD0D8908E378F37903791370006B6
:10069000D8B4BCD0F5D78D8D6DD08D9D84C38CF32F
:1006A00084AF02D0918FABD0919FA9D087C38BF339
:1006B00087C300F083518B5F84C391F3918F85C30F
:1006C00090F386C38FF38E6BD890913390338F3332
:1006D0008E338B2FF8D78CAF03D08D839CD08D9326
:1006E0008B918D8B030EEA6E8A0EE96EA7D08D9BDF
:1006F0008CBF0AD08BA113D0913390338F338E33BC
:10070000002AD8B483D00BD091BF0CD0D8908E37AC
:100710008F37903791370006D8B478D0F5D78D8FC2
:1007200029D08D9F88C38CF388AF02D0918F67D07A
:10073000919F65D088C391F3918F89C390F38AC349
:100740008FF38CAF04D0919F8D8565D08D958E6B86
:100750008B91030EEA6E860EE96E70D08CBF1CD0B2
:1007600084C38CF38BA106D0913390338F338E33B7
:10077000002A4CE08EAF0BD08F2B09E1902B07E1C4
:10078000912B05E1913390338F33002A3FE08DBDEB
:1007900084D78DBFC6D71CD0800E911B91AF04D0DB
:1007A0003AD088C38CF30AD084C38CF3915306E10A
:1007B000905304E18F5302E1006A21D091BF08D029
:1007C000D8908E378F3790379137002EF7D71ED0BD
:1007D0008CAF02D0918F13D0919F11D087C300F0BE
:1007E00088C391F389C390F38AC38FF308D083C37E
:1007F00000F084C391F385C390F386C38FF391C354
:1008000001F090C302F08FC303F034D0006A016A94
:10081000026A036A2FD08E6B8F1F901F911F8E1F4D
:100820008E2B05E18F2B03E1902B01E1912B8DB1F4
:1008300012D78DB354D78DB589D7B3D7EF508F2743
:1008400005E3902B03E1912BD8B48B81ED52EF504F
:10085000902703E3912BD8B48B81ED52EF50EFBE7C
:1008600001D0800A9127D8B08B818DB9FCD68DBB81
:100870003ED774D70001000C80C387F30301845175
:10088000871B87AF05D0D894D89080BFD8802FD051
:1008900080C387F383C388F37F51885F06E087AF07
:1008A00026D0D850010AD86E22D084C388F3805154
:1008B000885F06E087AF1BD0D850010AD86E17D0EA
:1008C00085C388F38151885F06E087AF10D0D85088
:1008D000010AD86E0CD086C388F38251885F06E087
:1008E00087AF05D0D850010AD86E01D0D89000014A
:1008F000000C8E0E006E02011951005E1AC202F049
:100900001BC201F0028E005209E0D890025202E1AF
:10091000015204E002320132002EF7D71AAF05D09F
:10092000011E021E012AD8B4022A0001000C010196
:1009300077AD14D01AC202F019C201F002320132AE
:1009400002320132023201C0BEFF02320230300BED
:10095000006EBD50CF0B0010BD6E13D01AC202F056
:1009600019C201F00232013202320132023201C0F8
:10097000BBFF02320230300B006EBA50CF0B0010BA
:10098000BA6E0001000CC1DC02C072F101C071F14D
:1009900001017FB330D071516F5D006E725170599B
:1009A000036E00C019F202011A6F0001BCDC00C026
:1009B00009F201C00AF202C00BF203C00CF203C03C
:1009C00086F302C085F301C084F300C083F3030102
:1009D0008A6BC00E896F7F0E886F880E876F00014B
:1009E000CADC03C0E8F002C0E7F001C0E6F000C0D6
:1009F000E5F02FD001016F51715D006E7051725999
:100A0000036E00C019F202011A6F00018CDC00C0F5
:100A100009F201C00AF202C00BF203C00CF203C0DB
:100A200086F302C085F301C084F300C083F30301A1
:100A30008A6BC00E896F7F0E886F880E876F0001EA
:100A40009ADC03C0E8F002C0E7F001C0E6F000C0A5
:100A5000E5F036B24FD1D4C016F2D3C015F23ADD6C
:100A600003C031F302C030F301C02FF300C02EF3F6
:100A70000A0E0301356FD70E346F230E336F780ED5
:100A8000326F000142DD00C009F201C00AF202C06B
:100A90000BF203C00CF203C031F302C030F301C00B
:100AA0002FF300C02EF3E8C035F3E7C034F3E6C0FF
:100AB00033F3E5C032F329DD00C009F201C00AF2C8
:100AC00002C00BF203C00CF203C031F302C030F3DA
:100AD00001C02FF300C02EF3D2C035F3D1C034F3E0
:100AE000D0C033F3CFC032F310DDD892F0C086F31C
:100AF000EFC085F3EEC084F3EDC083F303C08AF347
:100B000002C089F301C088F300C087F379DD03C018
:100B1000ECF002C0EBF001C0EAF000C0E9F0030124
:100B2000826BC00E816F7F0E806F880E7F6FECC06E
:100B300086F3EBC085F3EAC084F3E9C083F30001D8
:100B40009BDE07E3EC6BC00EEB6F7F0EEA6F880E47
:100B5000E96F01017351715D006E74517259036E3A
:100B600000C019F202011A6F000193EC01F0CEC02F
:100B700031F3CDC030F3CCC02FF3CBC02EF303C084
:100B800035F302C034F301C033F300C032F3BDDCEF
:100B900000C009F201C00AF202C00BF203C00CF25D
:100BA000D4C016F2D3C015F295DC03C031F302C0F5
:100BB00030F301C02FF300C02EF30A0E0301356F8E
:100BC000D70E346F230E336F780E326F00019DDC29
:100BD00000C00DF201C00EF202C00FF203C010F20D
:100BE00003C031F302C030F301C02FF300C02EF375
:100BF0000301356BC00E346F7F0E336F880E326F7A
:100C0000000183DC0CC286F30BC285F30AC284F3B5
:100C100009C283F303C08AF302C089F301C088F3D9
:100C200000C087F3BBEC01F003C0F4F002C0F3F0A6
:100C300001C0F2F000C0F1F0CAC031F3C9C030F316
:100C4000C8C02FF3C7C02EF3E8C035F3E7C034F3B4
:100C5000E6C033F3E5C032F358DC03C0F8F002C05D
:100C6000F7F001C0F6F000C0F5F0D882F8C086F3C6
:100C7000F7C085F3F6C084F3F5C083F3F4C08AF3BC
:100C8000F3C089F3F2C088F3F1C087F3B9DC00C088
:100C900009F201C00AF202C00BF203C00CF2D892B2
:100CA00003C086F302C085F301C084F300C083F360
:100CB000ECC08AF3EBC089F3EAC088F3E9C087F39C
:100CC0009FDC03C01CF202C01BF201C01AF200C07C
:100CD00019F20FDE02C0E4F001C0E3F072C174F15A
:100CE00071C173F1ECC0F0F0EBC0EFF0EAC0EEF0D0
:100CF000E9C0EDF0E4BF08D0E451030805E2030EBB
:100D0000E46FFF0EE36F04D0E4AF02D0E46BE36B5B
:100D1000E4C01AF2E3C019F20ADEA4EF06F0010102
:100D20007C517D1106E181C17DF180C17CF1778725
:100D300004D07C51D8B47D077C070001000C7BC136
:100D4000D7FF7AC1D6FF1FD6EADFF29440EF00F05A
:100D500076C382F375C381F374C380F373C37FF3E7
:100D600066C386F365C385F364C384F363C383F307
:100D700083DD52E366C382F365C381F364C380F30A
:100D800063C37FF37AC386F379C385F378C384F3AF
:100D900077C383F371DD01E23FE1D88266C386F356
:100DA00065C385F364C384F363C383F376C38AF3B3
:100DB00075C389F374C388F373C387F321DC00C060
:100DC0007FF301C080F302C081F303C082F3D882B5
:100DD0007AC386F379C385F378C384F377C383F347
:100DE00076C38AF375C389F374C388F373C387F337
:100DF00007DC82C386F381C385F380C384F37FC39A
:100E000083F303C08AF302C089F301C088F300C0F2
:100E100087F3BBEC01F069D07AC382F379C381F325
:100E200078C380F377C37FF366C386F365C385F326
:100E300064C384F363C383F31FDD53E366C382F3A8
:100E400065C381F364C380F363C37FF37EC386F31A
:100E50007DC385F37CC384F37BC383F30DDD41E362
:100E6000D8827EC386F37DC385F37CC384F37BC3C2
:100E700083F366C38AF365C389F364C388F363C3EA
:100E800087F300EC03F000C07FF301C080F302C0E1
:100E900081F303C082F3D8827EC386F37DC385F3DA
:100EA0007CC384F37BC383F37AC38AF379C389F366
:100EB00078C388F377C387F300EC03F082C386F32B
:100EC00081C385F380C384F37FC383F303C08AF3B4
:100ED00002C089F301C088F300C087F3BBEC01F0C6
:100EE00004D0006A016A026A036A000CF9C266F360
:100EF000F8C265F3F7C264F3F6C263F303016A6BE9
:100F0000C00E696FFF0E686F880E676F6E6BC00E44
:100F10006D6F7F0E6C6F880E6B6F550E726F716FF9
:100F2000630E706F860E6F6F766BD00E756FBF0E8F
:100F3000746F890E736F7A6BC00E796FFF0E786FC6
:100F4000880E776F7E6BC00E7D6FFF0E7C6F870EF5
:100F50007B6F0001FDDE16EF11F0F9C266F3F8C2F7
:100F600065F3F7C264F3F6C263F303016A6BC00E64
:100F7000696FFF0E686F880E676F6E6BC00E6D6FC6
:100F80007F0E6C6F880E6B6F550E726F716F630EF4
:100F9000706F860E6F6F766BC00E756FFF0E746F7D
:100FA000880E736F7A6BC00E796FFF0E786F870EA5
:100FB000776F7E6B7D6B7C6B7B6B0001C9DE28EFEE
:100FC00011F0F9C266F3F8C265F3F7C264F3F6C232
:100FD00063F303016A6BC00E696FFF0E686F880EC2
:100FE000676F6E6BC00E6D6F7F0E6C6F880E6B6FD0
:100FF000550E726F716F630E706F860E6F6F766B2A
:10100000C00E756FFF0E746F870E736F7A6B796BFE
:10101000786B776B7E6BC00E7D6F7F0E7C6F870E5B
:101020007B6F000195DE3AEF11F0F9C266F3F8C26A
:1010300065F3F7C264F3F6C263F303016A6BC00E93
:10104000696FFF0E686F880E676F6E6BC00E6D6FF5
:101050007F0E6C6F880E6B6F550E726F716F630E23
:10106000706F860E6F6F766B756B746B736B7A6BCC
:10107000C00E796F7F0E786F870E776F7E6BC00E14
:101080007D6F7F0E7C6F880E7B6F000161DE4CEF01
:1010900011F0F9C266F3F8C265F3F7C264F3F6C261
:1010A00063F303016A6BC00E696FFF0E686F880EF1
:1010B000676F6E6BC00E6D6F7F0E6C6F880E6B6FFF
:1010C000550E726F716F630E706F860E6F6F766B59
:1010D000C00E756F7F0E746F870E736F7A6BC00EC4
:1010E000796F7F0E786F880E776F7E6BD00E7D6F75
:1010F0003F0E7C6F890E7B6F00012ADE5EEF11F0E0
:10110000F9C266F3F8C265F3F7C264F3F6C263F39B
:1011100003016A6BC00E696FFF0E686F880E676F00
:101120006E6BC00E6D6F7F0E6C6F880E6B6F550E01
:10113000726F716F630E706F860E6F6F766BD00E6D
:10114000756FBF0E746F890E736F7A6BC00E796FF7
:10115000FF0E786F880E776F7E6BC00E7D6FFF0E6F
:101160007C6F870E7B6F0001F3DD70EF11F0F9C229
:1011700066F3F8C265F3F7C264F3F6C263F30301E2
:101180006A6BC00E696FFF0E686F880E676F6E6BBB
:10119000C00E6D6F7F0E6C6F880E6B6F550E726F89
:1011A000716F630E706F860E6F6F766BC00E756F0A
:1011B000FF0E746F880E736F7A6BC00E796FFF0E1F
:1011C000786F870E776F7E6B7D6B7C6B7B6B00011E
:1011D000BFDD82EF11F0F9C266F3F8C265F3F7C222
:1011E00064F3F6C263F303016A6BC00E696FFF0E0E
:1011F000686F880E676F6E6BC00E6D6F7F0E6C6FC1
:10120000880E6B6F550E726F716F630E706F860E66
:101210006F6F766BC00E756FFF0E746F870E736FF6
:101220007A6B796B786B776B7E6BC00E7D6F7F0E00
:101230007C6F870E7B6F00018BDD94EF11F0F9C29C
:1012400066F3F8C265F3F7C264F3F6C263F3030111
:101250006A6BC00E696FFF0E686F880E676F6E6BEA
:10126000C00E6D6F7F0E6C6F880E6B6F550E726FB8
:10127000716F630E706F860E6F6F766B756B746B2C
:10128000736B7A6BC00E796F7F0E786F870E776FF6
:101290007E6BC00E7D6F7F0E7C6F880E7B6F0001B2
:1012A00057DDA6EF11F0F9C266F3F8C265F3F7C295
:1012B00064F3F6C263F303016A6BC00E696FFF0E3D
:1012C000686F880E676F6E6BC00E6D6F7F0E6C6FF0
:1012D000880E6B6F550E726F716F630E706F860E96
:1012E0006F6F766BC00E756F7F0E746F870E736FA6
:1012F0007A6BC00E796F7F0E786F880E776F7E6B7A
:10130000D00E7D6F3F0E7C6F890E7B6F000120DD5C
:10131000B8EF11F0F9C282F3F8C281F3F7C280F39B
:10132000F6C27FF3FDC286F3FCC285F3FBC284F3F1
:10133000FAC283F33CEC04F009E3F6C200F0F7C212
:1013400001F0F8C202F0F9C203F008D0FAC200F0CE
:10135000FBC201F0FCC202F0FDC203F0000C62C34C
:1013600066F361C365F360C364F35FC363F346C0B0
:101370006AF345C069F344C068F343C067F34AC0E9
:101380006EF349C06DF348C06CF347C06BF34EC0B9
:1013900072F34DC071F34CC070F34BC06FF38EC04D
:1013A00076F38DC075F38CC074F38BC073F392C069
:1013B0007AF391C079F390C078F38FC077F396C039
:1013C0007EF395C07DF394C07CF393C07BF3C0DCC7
:1013D000000C62C366F361C365F360C364F35FC36B
:1013E00063F346C06AF345C069F344C068F343C081
:1013F00067F34AC06EF349C06DF348C06CF347C051
:101400006BF34EC072F34DC071F34CC070F34BC020
:101410006FF39AC076F399C075F398C074F397C0D0
:1014200073F39EC07AF39DC079F39CC078F39BC0A0
:1014300077F3A2C07EF3A1C07DF3A0C07CF39FC070
:101440007BF386DC000C62C366F361C365F360C3A3
:1014500064F35FC363F346C06AF345C069F344C0F5
:1014600068F343C067F34AC06EF349C06DF348C0E8
:101470006CF347C06BF34EC072F34DC071F34CC0B8
:1014800070F34BC06FF3A6C076F3A5C075F3A4C08C
:1014900074F3A3C073F3AAC07AF3A9C079F3A8C008
:1014A00078F3A7C077F3AEC07EF3ADC07DF3ACC0D8
:1014B0007CF3ABC07BF34CDC000C62C366F361C30E
:1014C00065F360C364F35FC363F346C06AF345C06A
:1014D00069F344C068F343C067F34AC06EF349C080
:1014E0006DF348C06CF347C06BF34EC072F34DC050
:1014F00071F34CC070F34BC06FF3B2C076F3B1C060
:1015000075F3B0C074F3AFC073F3B6C07AF3B5C06F
:1015100079F3B4C078F3B3C077F3BAC07EF3B9C03F
:101520007DF3B8C07CF3B7C07BF312DC000C62C360
:1015300066F361C365F360C364F35FC363F346C0DE
:101540006AF345C069F344C068F343C067F34AC017
:101550006EF349C06DF348C06CF347C06BF34EC0E7
:1015600072F34DC071F34CC070F34BC06FF3BEC04B
:1015700076F3BDC075F3BCC074F3BBC073F3C2C0D7
:101580007AF3C1C079F3C0C078F3BFC077F3C6C0A7
:101590007EF3C5C07DF3C4C07CF3C3C07BF3A8EC6D
:1015A00006F0000C62C366F361C365F360C364F3C5
:1015B0005FC363F33AC06AF339C069F338C068F3B4
:1015C00037C067F33EC06EF33DC06DF33CC06CF3B3
:1015D0003BC06BF342C072F341C071F340C070F383
:1015E0003FC06FF352C076F351C075F350C074F32F
:1015F0004FC073F356C07AF355C079F354C078F3F3
:1016000053C077F35AC07EF359C07DF358C07CF3C2
:1016100057C07BF3A8EC06F0000C62C366F361C30D
:1016200065F360C364F35FC363F33AC06AF339C020
:1016300069F338C068F337C067F33EC06EF33DC04E
:101640006DF33CC06CF33BC06BF342C072F341C01E
:1016500071F340C070F33FC06FF35EC076F35DC0BE
:1016600075F35CC074F35BC073F362C07AF361C05E
:1016700079F360C078F35FC077F366C07EF365C02E
:101680007DF364C07CF363C07BF3A8EC06F0000C30
:1016900062C366F361C365F360C364F35FC363F35E
:1016A0003AC06AF339C069F338C068F337C067F3EA
:1016B0003EC06EF33DC06DF33CC06CF33BC06BF3BA
:1016C00042C072F341C071F340C070F33FC06FF38A
:1016D0006AC076F369C075F368C074F367C073F3CA
:1016E0006EC07AF36DC079F36CC078F36BC077F39A
:1016F00072C07EF371C07DF370C07CF36FC07BF36A
:10170000A8EC06F0000C62C366F361C365F360C326
:1017100064F35FC363F33AC06AF339C069F338C056
:1017200068F337C067F33EC06EF33DC06DF33CC055
:101730006CF33BC06BF342C072F341C071F340C025
:1017400070F33FC06FF376C076F375C075F374C065
:1017500074F373C073F37AC07AF379C079F378C005
:1017600078F377C077F37EC07EF37DC07DF37CC0D5
:101770007CF37BC07BF3A8EC06F0000C62C366F33D
:1017800061C365F360C364F35FC363F33AC06AF394
:1017900039C069F338C068F337C067F33EC06EF3F1
:1017A0003DC06DF33CC06CF33BC06BF342C072F3C1
:1017B00041C071F340C070F33FC06FF382C076F355
:1017C00081C075F380C074F37FC073F386C07AF371
:1017D00085C079F384C078F383C077F38AC07EF341
:1017E00089C07DF388C07CF387C07BF3A8EC06F04A
:1017F000000C36B038D103015A51E70FD8B031D1BF
:10180000190F00016BEF0EF05EC362F35DC361F36D
:101810005CC360F35BC35FF3A2DD5AD2030121D145
:101820005EC362F35DC361F35CC360F35BC35FF3EC
:1018300096DD4ED2030115D15EC362F35DC361F341
:101840005CC360F35BC35FF38ADD42D2030109D15D
:101850005EC362F35DC361F35CC360F35BC35FF3BC
:101860007EDD36D20301FDD05EC362F35DC361F35A
:101870005CC360F35BC35FF372DD2AD20301F1D076
:101880005EC362F35DC361F35CC360F35BC35FF38C
:10189000A0DD1ED20301E5D05EC362F35DC361F338
:1018A0005CC360F35BC35FF394DD12D20301D9D054
:1018B0005EC362F35DC361F35CC360F35BC35FF35C
:1018C00088DD06D20301CDD05EC362F35DC361F350
:1018D0005CC360F35BC35FF37CDDFAD10301C1D06D
:1018E0005EC362F35DC361F35CC360F35BC35FF32C
:1018F00036DDEED10301B5D05EC362F35DC361F3A3
:101900005CC360F35BC35FF39EDDE2D10301A9D04A
:101910005EC362F35DC361F35CC360F35BC35FF3FB
:1019200092DDD6D103019DD05EC362F35DC361F346
:101930005CC360F35BC35FF386DDCAD1030191D062
:101940005EC362F35DC361F35CC360F35BC35FF3CB
:101950007ADDBED1030185D05EC362F35DC361F35E
:101960005CC360F35BC35FF36EDDB2D1030179D07A
:101970005EC362F35DC361F35CC360F35BC35FF39B
:101980009CDDA6D103016DD05EC362F35DC361F33C
:101990005CC360F35BC35FF390DD9AD1030161D058
:1019A0005EC362F35DC361F35CC360F35BC35FF36B
:1019B00084DD8ED1030155D05EC362F35DC361F354
:1019C0005CC360F35BC35FF378DD82D1030149D070
:1019D0005EC362F35DC361F35CC360F35BC35FF33B
:1019E000A6DD76D103013DD05EC362F35DC361F332
:1019F0005CC360F35BC35FF39ADD6AD1030131D04E
:101A00005EC362F35DC361F35CC360F35BC35FF30A
:101A10008EDD5ED1030125D05EC362F35DC361F349
:101A20005CC360F35BC35FF382DD52D1030119D065
:101A30005EC362F35DC361F35CC360F35BC35FF3DA
:101A400076DD46D103010DD05EC362F35DC361F361
:101A50005CC360F35BC35FF36ADD3AD1030101D07D
:101A6000030137D1000103015A51E70FD8B031D13A
:101A7000190F000191EF0EF05EC362F35DC361F3D5
:101A80005CC360F35BC35FF38DDD22D1030121D121
:101A90005EC362F35DC361F35CC360F35BC35FF37A
:101AA00081DD16D1030115D15EC362F35DC361F31D
:101AB0005CC360F35BC35FF375DD0AD1030109D139
:101AC0005EC362F35DC361F35CC360F35BC35FF34A
:101AD00069DDFED00301FDD05EC362F35DC361F337
:101AE0005CC360F35BC35FF35DDDF2D00301F1D053
:101AF0005EC362F35DC361F35CC360F35BC35FF31A
:101B00008CDDE6D00301E5D05EC362F35DC361F313
:101B10005CC360F35BC35FF380DDDAD00301D9D02F
:101B20005EC362F35DC361F35CC360F35BC35FF3E9
:101B300074DDCED00301CDD05EC362F35DC361F32B
:101B40005CC360F35BC35FF368DDC2D00301C1D047
:101B50005EC362F35DC361F35CC360F35BC35FF3B9
:101B600021DDB6D00301B5D05EC362F35DC361F37E
:101B70005CC360F35BC35FF38BDDAAD00301A9D024
:101B80005EC362F35DC361F35CC360F35BC35FF389
:101B90007FDD9ED003019DD05EC362F35DC361F320
:101BA0005CC360F35BC35FF373DD92D0030191D03C
:101BB0005EC362F35DC361F35CC360F35BC35FF359
:101BC00067DD86D0030185D05EC362F35DC361F338
:101BD0005CC360F35BC35FF35BDD7AD0030179D054
:101BE0005EC362F35DC361F35CC360F35BC35FF329
:101BF0008ADD6ED003016DD05EC362F35DC361F315
:101C00005CC360F35BC35FF37EDD62D0030161D030
:101C10005EC362F35DC361F35CC360F35BC35FF3F8
:101C200072DD56D0030155D05EC362F35DC361F32C
:101C30005CC360F35BC35FF366DD4AD0030149D048
:101C40005EC362F35DC361F35CC360F35BC35FF3C8
:101C500095DD3ED003013DD05EC362F35DC361F309
:101C60005CC360F35BC35FF389DD32D0030131D025
:101C70005EC362F35DC361F35CC360F35BC35FF398
:101C80007DDD26D0030125D05EC362F35DC361F321
:101C90005CC360F35BC35FF371DD1AD0030119D03D
:101CA0005EC362F35DC361F35CC360F35BC35FF368
:101CB00065DD0ED003010DD05EC362F35DC361F339
:101CC0005CC360F35BC35FF359DD02D0030101D055
:101CD00003010001000CE824F76AF736F10FF66EF5
:101CE0001C0EF7220A00F550FA6E0800F550F96E46
:101CF0000818201838185018681880189818B01844
:101D0000C818E018F818101928194019581970192E
:101D10008819A019B819D019E819001A181A301A18
:101D2000481AE824F76AF7363D0FF66E1D0EF722C3
:101D30000A00F550FA6E0800F550F96E781A901AFC
:101D4000A81AC01AD81AF01A081B201B381B501BDF
:101D5000681B801B981BB01BC81BE01BF81B101CCA
:101D6000281C401C581C701C881CA01CB81C61C37B
:101D700082F360C381F35FC380F35EC37FF365C307
:101D800086F364C385F363C384F362C383F33CECDB
:101D900004F009E35EC300F05FC301F060C302F02A
:101DA00061C303F008D062C300F063C301F064C3F1
:101DB00002F065C303F0000C5DC382F35CC381F3E2
:101DC0005BC380F35AC37FF359C386F358C385F3CB
:101DD00057C384F356C383F33CEC04F009E356C3C2
:101DE00000F057C301F058C302F059C303F008D004
:101DF0005AC300F05BC301F05CC302F05DC303F0A3
:101E00009AEF0FF042C34CF3030143C3E9FF44C30D
:101E1000EAFFEFCF56F3ECCF57F3ECCF58F3ECCF0C
:101E200059F35A6B4BC35EF34AC35DF349C35CF38A
:101E300048C35BF30001DDDC00C05AF301C05BF373
:101E400002C05CF303C05DF359C361F358C360F390
:101E500057C35FF356C35EF303C065F302C064F378
:101E600001C063F300C062F382DF03C051F302C01C
:101E700050F301C04FF300C04EF351C355F350C3AC
:101E800054F34FC353F34EC352F3010E03014D6F8E
:101E90004C514D5D5AE24D51040DF350036A4325F8
:101EA000E96E44510320EA6EEFCF56F3ECCF57F3BF
:101EB000ECCF58F3ECCF59F34DC35AF34BC35EF359
:101EC0004AC35DF349C35CF348C35BF3000191DC93
:101ED00000C05AF301C05BF302C05CF303C05DF3C2
:101EE00059C361F358C360F357C35FF356C35EF33E
:101EF00003C065F302C064F301C063F300C062F382
:101F000036DF03C051F302C050F301C04FF300C0ED
:101F10004EF355C359F354C358F353C357F352C345
:101F200056F351C35DF350C35CF34FC35BF34EC331
:101F30005AF342D703C055F302C054F301C053F320
:101F400000C052F303014D2BA3D752C300F053C37B
:101F500001F054C302F055C303F000012CEF10F060
:101F6000FBC215F3FAC214F3F9C213F3F8C212F369
:101F7000FFC219F3FEC218F3FDC217F3FCC216F339
:101F800003C31DF302C31CF301C31BF300C31AF305
:101F90000301296B286B276B266B2D6B2C6B2B6B2E
:101FA0002A6B15C321F314C320F313C31FF312C309
:101FB0001EF321C382F320C381F31FC380F31EC32A
:101FC0007FF319C386F318C385F317C384F316C3CD
:101FD00083F300013CEC04F002E2D8A4AAD0F8C2DA
:101FE0002EF3F9C22FF3FAC230F3FBC231F3FCC275
:101FF00032F3FDC233F3FEC234F3FFC235F300C344
:1020000036F301C337F302C338F303C339F304C310
:102010003AF305C33BF306C33CF307C33DF308C3E0
:102020003EF309C33FF30AC340F30BC341F30CC3B0
:1020300042F30DC343F30EC344F30FC345F310C380
:1020400046F311C347F321C34BF320C34AF31FC325
:1020500049F31EC348F3D6D603C025F302C024F3C8
:1020600001C023F300C022F321C331F320C330F3B6
:102070001FC32FF31EC32EF325C335F324C334F33C
:1020800023C333F322C332F385EC02F0D89229C381
:1020900086F328C385F327C384F326C383F303C0E1
:1020A0008AF302C089F301C088F300C087F300EC13
:1020B00003F003C029F302C028F301C027F300C0D6
:1020C00026F3D8922DC386F32CC385F32BC384F358
:1020D0002AC383F325C38AF324C389F323C388F374
:1020E00022C387F300EC03F003C02DF302C02CF3EE
:1020F00001C02BF300C02AF3D89221C386F320C37A
:1021000085F31FC384F31EC383F31DC38AF31CC36B
:1021100089F31BC388F31AC387F300EC03F003C0F1
:1021200021F302C020F301C01FF300C01EF303011E
:1021300040D72DC382F32CC381F32BC380F32AC372
:102140007FF30301866B856B846B836B00013CEC32
:1021500004F02DE1D89215C386F314C385F313C39D
:1021600084F312C383F319C38AF318C389F317C323
:1021700088F316C387F300EC03F000C02EF301C010
:102180002FF302C030F303C031F303C086F302C063
:1021900085F301C084F300C083F303018A6B896B6C
:1021A000886B800E876F0001BBEC01F012D029C351
:1021B00086F328C385F327C384F326C383F32DC393
:1021C0008AF32CC389F32BC388F32AC387F3BBECB0
:1021D00001F07AEF16F042C2B6F241C2B5F240C247
:1021E000B4F23FC2B3F246C2BAF245C2B9F244C237
:1021F000B8F243C2B7F24AC2BEF249C2BDF248C207
:10220000BCF247C2BBF2190E0201C76F020EC96FC2
:102210004F0EC86FCD6B38C2F9F237C2F8F236C232
:10222000F7F235C2F6F2000176EF07F003C0D1F203
:1022300002C0D0F201C0CFF200C0CEF238C2F9F233
:1022400037C2F8F236C2F7F235C2F6F2ADEF07F058
:1022500003C0D5F202C0D4F201C0D3F200C0D2F262
:1022600038C2F9F237C2F8F236C2F7F235C2F6F2E6
:10227000E1EF07F003C0D9F202C0D8F201C0D7F2F3
:1022800000C0D6F238C2F9F237C2F8F236C2F7F21D
:1022900035C2F6F215EF08F003C0DDF202C0DCF241
:1022A00001C0DBF200C0DAF238C2F9F237C2F8F24C
:1022B00036C2F7F235C2F6F249EF08F003C0E1F298
:1022C00002C0E0F201C0DFF200C0DEF23CC2F9F26F
:1022D0003BC2F8F23AC2F7F239C2F6F280EF08F0E8
:1022E00003C0E5F202C0E4F201C0E3F200C0E2F292
:1022F0003CC2F9F23BC2F8F23AC2F7F239C2F6F246
:10230000B7EF08F003C0E9F202C0E8F201C0E7F25B
:1023100000C0E6F23CC2F9F23BC2F8F23AC2F7F270
:1023200039C2F6F2EBEF08F003C0EDF202C0ECF2B6
:1023300001C0EBF200C0EAF23CC2F9F23BC2F8F293
:102340003AC2F7F239C2F6F21FEF09F003C0F1F218
:1023500002C0F0F201C0EFF200C0EEF23CC2F9F2AE
:102360003BC2F8F23AC2F7F239C2F6F253EF09F083
:1023700003C0F5F202C0F4F201C0F3F200C0F2F2C1
:10238000D1C2F9F2D0C2F8F2CFC2F7F2CEC2F6F261
:10239000E5C2FDF2E4C2FCF2E3C2FBF2E2C2FAF2F1
:1023A0008AEC09F003C04EF202C04DF201C04CF2BB
:1023B00000C04BF20201CD51040DF350036A4F0FE0
:1023C000E96E020E0320EA6E4BC2EFFF4CC2ECFF37
:1023D0004DC2ECFF4EC2ECFFCD2BD1C2F9F2D0C200
:1023E000F8F2CFC2F7F2CEC2F6F2E9C2FDF2E8C2CD
:1023F000FCF2E7C2FBF2E6C2FAF200018AEC09F055
:1024000003C04EF202C04DF201C04CF200C04BF2CC
:102410000201CD51040DF350036A4F0FE96E020E15
:102420000320EA6E4BC2EFFF4CC2ECFF4DC2ECFF43
:102430004EC2ECFFCD2BD1C2F9F2D0C2F8F2CFC21E
:10244000F7F2CEC2F6F2EDC2FDF2ECC2FCF2EBC244
:10245000FBF2EAC2FAF200018AEC09F003C04EF284
:1024600002C04DF201C04CF200C04BF20201CD514E
:10247000040DF350036A4F0FE96E020E0320EA6E5B
:102480004BC2EFFF4CC2ECFF4DC2ECFF4EC2ECFF63
:10249000CD2BD1C2F9F2D0C2F8F2CFC2F7F2CEC240
:1024A000F6F2F1C2FDF2F0C2FCF2EFC2FBF2EEC2B4
:1024B000FAF200018AEC09F003C04EF202C04DF2BC
:1024C00001C04CF200C04BF20201CD51040DF3509B
:1024D000036A4F0FE96E020E0320EA6E4BC2EFFF54
:1024E0004CC2ECFF4DC2ECFF4EC2ECFFCD2BD1C273
:1024F000F9F2D0C2F8F2CFC2F7F2CEC2F6F2F5C2CC
:10250000FDF2F4C2FCF2F3C2FBF2F2C2FAF20001F5
:102510008AEC09F003C04EF202C04DF201C04CF249
:1025200000C04BF20201CD51040DF350036A4F0F6E
:10253000E96E020E0320EA6E4BC2EFFF4CC2ECFFC5
:102540004DC2ECFF4EC2ECFFCD2BD5C2F9F2D4C286
:10255000F8F2D3C2F7F2D2C2F6F2E5C2FDF2E4C25B
:10256000FCF2E3C2FBF2E2C2FAF200018AEC09F0EB
:1025700003C04EF202C04DF201C04CF200C04BF25B
:102580000201CD51040DF350036A4F0FE96E020EA4
:102590000320EA6E4BC2EFFF4CC2ECFF4DC2ECFFD2
:1025A0004EC2ECFFCD2BD5C2F9F2D4C2F8F2D3C2A1
:1025B000F7F2D2C2F6F2E9C2FDF2E8C2FCF2E7C2DB
:1025C000FBF2E6C2FAF200018AEC09F003C04EF217
:1025D00002C04DF201C04CF200C04BF20201CD51DD
:1025E000040DF350036A4F0FE96E020E0320EA6EEA
:1025F0004BC2EFFF4CC2ECFF4DC2ECFF4EC2ECFFF2
:10260000CD2BD5C2F9F2D4C2F8F2D3C2F7F2D2C2BE
:10261000F6F2EDC2FDF2ECC2FCF2EBC2FBF2EAC252
:10262000FAF200018AEC09F003C04EF202C04DF24A
:1026300001C04CF200C04BF20201CD51040DF35029
:10264000036A4F0FE96E020E0320EA6E4BC2EFFFE2
:102650004CC2ECFF4DC2ECFF4EC2ECFFCD2BD5C2FD
:10266000F9F2D4C2F8F2D3C2F7F2D2C2F6F2F1C252
:10267000FDF2F0C2FCF2EFC2FBF2EEC2FAF2000190
:102680008AEC09F003C04EF202C04DF201C04CF2D8
:1026900000C04BF20201CD51040DF350036A4F0FFD
:1026A000E96E020E0320EA6E4BC2EFFF4CC2ECFF54
:1026B0004DC2ECFF4EC2ECFFCD2BD5C2F9F2D4C215
:1026C000F8F2D3C2F7F2D2C2F6F2F5C2FDF2F4C2CA
:1026D000FCF2F3C2FBF2F2C2FAF200018AEC09F05A
:1026E00003C04EF202C04DF201C04CF200C04BF2EA
:1026F0000201CD51040DF350036A4F0FE96E020E33
:102700000320EA6E4BC2EFFF4CC2ECFF4DC2ECFF60
:102710004EC2ECFFCD2BD9C2F9F2D8C2F8F2D7C223
:10272000F7F2D6C2F6F2E5C2FDF2E4C2FCF2E3C271
:10273000FBF2E2C2FAF200018AEC09F003C04EF2A9
:1027400002C04DF201C04CF200C04BF20201CD516B
:10275000040DF350036A4F0FE96E020E0320EA6E78
:102760004BC2EFFF4CC2ECFF4DC2ECFF4EC2ECFF80
:10277000CD2BD9C2F9F2D8C2F8F2D7C2F7F2D6C23D
:10278000F6F2E9C2FDF2E8C2FCF2E7C2FBF2E6C2F1
:10279000FAF200018AEC09F003C04EF202C04DF2D9
:1027A00001C04CF200C04BF20201CD51040DF350B8
:1027B000036A4F0FE96E020E0320EA6E4BC2EFFF71
:1027C0004CC2ECFF4DC2ECFF4EC2ECFFCD2BD9C288
:1027D000F9F2D8C2F8F2D7C2F7F2D6C2F6F2EDC2D9
:1027E000FDF2ECC2FCF2EBC2FBF2EAC2FAF200012B
:1027F0008AEC09F003C04EF202C04DF201C04CF267
:1028000000C04BF20201CD51040DF350036A4F0F8B
:10281000E96E020E0320EA6E4BC2EFFF4CC2ECFFE2
:102820004DC2ECFF4EC2ECFFCD2BD9C2F9F2D8C29B
:10283000F8F2D7C2F7F2D6C2F6F2F1C2FDF2F0C258
:10284000FCF2EFC2FBF2EEC2FAF200018AEC09F0F0
:1028500003C04EF202C04DF201C04CF200C04BF278
:102860000201CD51040DF350036A4F0FE96E020EC1
:102870000320EA6E4BC2EFFF4CC2ECFF4DC2ECFFEF
:102880004EC2ECFFCD2BD9C2F9F2D8C2F8F2D7C2B2
:10289000F7F2D6C2F6F2F5C2FDF2F4C2FCF2F3C2D0
:1028A000FBF2F2C2FAF200018AEC09F003C04EF228
:1028B00002C04DF201C04CF200C04BF20201CD51FA
:1028C000040DF350036A4F0FE96E020E0320EA6E07
:1028D0004BC2EFFF4CC2ECFF4DC2ECFF4EC2ECFF0F
:1028E000CD2BDDC2F9F2DCC2F8F2DBC2F7F2DAC2BC
:1028F000F6F2E5C2FDF2E4C2FCF2E3C2FBF2E2C290
:10290000FAF200018AEC09F003C04EF202C04DF267
:1029100001C04CF200C04BF20201CD51040DF35046
:10292000036A4F0FE96E020E0320EA6E4BC2EFFFFF
:102930004CC2ECFF4DC2ECFF4EC2ECFFCD2BDDC212
:10294000F9F2DCC2F8F2DBC2F7F2DAC2F6F2E9C25F
:10295000FDF2E8C2FCF2E7C2FBF2E6C2FAF20001C5
:102960008AEC09F003C04EF202C04DF201C04CF2F5
:1029700000C04BF20201CD51040DF350036A4F0F1A
:10298000E96E020E0320EA6E4BC2EFFF4CC2ECFF71
:102990004DC2ECFF4EC2ECFFCD2BDDC2F9F2DCC222
:1029A000F8F2DBC2F7F2DAC2F6F2EDC2FDF2ECC2E7
:1029B000FCF2EBC2FBF2EAC2FAF200018AEC09F087
:1029C00003C04EF202C04DF201C04CF200C04BF207
:1029D0000201CD51040DF350036A4F0FE96E020E50
:1029E0000320EA6E4BC2EFFF4CC2ECFF4DC2ECFF7E
:1029F0004EC2ECFFCD2BDDC2F9F2DCC2F8F2DBC235
:102A0000F7F2DAC2F6F2F1C2FDF2F0C2FCF2EFC266
:102A1000FBF2EEC2FAF200018AEC09F003C04EF2BA
:102A200002C04DF201C04CF200C04BF20201CD5188
:102A3000040DF350036A4F0FE96E020E0320EA6E95
:102A40004BC2EFFF4CC2ECFF4DC2ECFF4EC2ECFF9D
:102A5000CD2BDDC2F9F2DCC2F8F2DBC2F7F2DAC24A
:102A6000F6F2F5C2FDF2F4C2FCF2F3C2FBF2F2C2DE
:102A7000FAF200018AEC09F003C04EF202C04DF2F6
:102A800001C04CF200C04BF20201CD51040DF350D5
:102A9000036A4F0FE96E020E0320EA6E4BC2EFFF8E
:102AA0004CC2ECFF4DC2ECFF4EC2ECFFCD2BE1C29D
:102AB000F9F2E0C2F8F2DFC2F7F2DEC2F6F2E5C2E6
:102AC000FDF2E4C2FCF2E3C2FBF2E2C2FAF2000160
:102AD0008AEC09F003C04EF202C04DF201C04CF284
:102AE00000C04BF20201CD51040DF350036A4F0FA9
:102AF000E96E020E0320EA6E4BC2EFFF4CC2ECFF00
:102B00004DC2ECFF4EC2ECFFCD2BE1C2F9F2E0C2A8
:102B1000F8F2DFC2F7F2DEC2F6F2E9C2FDF2E8C275
:102B2000FCF2E7C2FBF2E6C2FAF200018AEC09F01D
:102B300003C04EF202C04DF201C04CF200C04BF295
:102B40000201CD51040DF350036A4F0FE96E020EDE
:102B50000320EA6E4BC2EFFF4CC2ECFF4DC2ECFF0C
:102B60004EC2ECFFCD2BE1C2F9F2E0C2F8F2DFC2B7
:102B7000F7F2DEC2F6F2EDC2FDF2ECC2FCF2EBC2FD
:102B8000FBF2EAC2FAF200018AEC09F003C04EF24D
:102B900002C04DF201C04CF200C04BF20201CD5117
:102BA000040DF350036A4F0FE96E020E0320EA6E24
:102BB0004BC2EFFF4CC2ECFF4DC2ECFF4EC2ECFF2C
:102BC000CD2BE1C2F9F2E0C2F8F2DFC2F7F2DEC2C9
:102BD000F6F2F1C2FDF2F0C2FCF2EFC2FBF2EEC27D
:102BE000FAF200018AEC09F003C04EF202C04DF285
:102BF00001C04CF200C04BF20201CD51040DF35064
:102C0000036A4F0FE96E020E0320EA6E4BC2EFFF1C
:102C10004CC2ECFF4DC2ECFF4EC2ECFFCD2BE1C22B
:102C2000F9F2E0C2F8F2DFC2F7F2DEC2F6F2F5C264
:102C3000FDF2F4C2FCF2F3C2FBF2F2C2FAF20001BE
:102C40008AEC09F003C04EF202C04DF201C04CF212
:102C500000C04BF20201CD51040DF350036A4F0F37
:102C6000E96E020E0320EA6E4BC2EFFF4CC2ECFF8E
:102C70004DC2ECFF4EC2ECFFCD2B3EC203F03DC275
:102C8000F6F23EC2F7F2B3C2F8F2B4C2F9F2B5C23C
:102C9000FAF2B6C2FBF2B7C2FCF2B8C2FDF2B9C298
:102CA000FEF2BAC2FFF2BBC200F3BCC201F3BDC266
:102CB00002F3BEC203F3BFC204F3C0C205F3C1C234
:102CC00006F3C2C207F3C3C208F3C4C209F3C5C204
:102CD0000AF3C6C20BF3C7C20CF3C8C20DF3C9C2D4
:102CE0000EF3CAC20FF3CBC210F3CCC211F3000132
:102CF000B0EF0FF0F7C2EAFFF6C2E9FF00C0EFFF46
:102D000001C0ECFF02C0ECFF03C0ECFF000C2AC2C4
:102D100038F229C237F228C236F227C235F22EC263
:102D20003CF22DC23BF22CC23AF22BC239F2020E17
:102D300002013E6F310E3D6F37C03FF238C040F2A6
:102D400039C041F23AC042F23BC043F23CC044F2C7
:102D50003DC045F23EC046F23FC047F240C048F297
:102D600041C049F242C04AF20001EBEC10F002010E
:102D70002FC2E9FF30C2EAFF31C2EFFF32C2ECFFDF
:102D800033C2ECFF34C2ECFF0001DFEF16F03680F7
:102D90001CC22AF21BC229F21AC228F219C227F257
:102DA00020C22EF21FC22DF21EC22CF21DC22BF227
:102DB000020E0201306F230E2F6F0001A8D702010F
:102DC00021C2E9FF22C2EAFF23C2EFFF24C2ECFFC7
:102DD00025C2ECFF26C2ECFF00015CEF19F02AC20D
:102DE00038F229C237F228C236F227C235F22EC293
:102DF0003CF22DC23BF22CC23AF22BC239F2020E47
:102E000002013E6F310E3D6F43C03FF244C040F2BD
:102E100045C041F246C042F247C043F248C044F2C6
:102E200049C045F24AC046F24BC047F24CC048F296
:102E30004DC049F24EC04AF20001EBEC10F0020125
:102E40002FC2E9FF30C2EAFF31C2EFFF32C2ECFF0E
:102E500033C2ECFF34C2ECFF000147EF17F03690AD
:102E60001CC22AF21BC229F21AC228F219C227F286
:102E700020C22EF21FC22DF21EC22CF21DC22BF256
:102E8000020E0201306F230E2F6F0001A8D702013E
:102E900021C2E9FF22C2EAFF23C2EFFF24C2ECFFF6
:102EA00025C2ECFF26C2ECFF000173EF19F085ECA0
:102EB00001F002C072F101C071F101017FB317D0BE
:102EC00071516F5D006E72517059036E00C019F23E
:102ED00002011A6F000193EC01F003C056F102C029
:102EE00055F101C054F100C053F116D001016F51EA
:102EF000715D006E70517259036E00C019F20201CB
:102F00001A6F000193EC01F003C056F102C055F1B5
:102F100001C054F100C053F154C101F0019E53C1EE
:102F200019F201C01AF255C11BF256C11CF257C169
:102F300000F058C101F059C102F05AC103F0019EDE
:102F4000D88256C186F355C185F31AC284F353C1A2
:102F500083F35AC18AF359C189F301C088F357C179
:102F600087F300EC03F003C05EF102C05DF101C025
:102F70005CF100C05BF136B2FCD156C131F355C1F2
:102F800030F354C12FF353C12EF3FCC035F3FBC013
:102F900034F3FAC033F3F9C032F385EC02F003C026
:102FA00016F202C015F201C014F200C013F20301C0
:102FB000826BC00E816F7F0E806F880E7F6F16C28E
:102FC00086F315C285F314C284F313C283F30001A0
:102FD0003CEC04F008E3880E006E7F0E016EC00E1C
:102FE000026E036A24D016C282F315C281F314C2A2
:102FF00080F313C27FF30301866BC00E856FFF0E53
:10300000846F880E836F00013CEC04F008E3880EA7
:10301000006EFF0E016EC00E026E036A08D013C26E
:1030200000F014C201F015C202F016C203F003C092
:1030300062F102C061F101C060F100C05FF15EC1E8
:1030400031F35DC130F35CC12FF35BC12EF300C1DE
:1030500035F3FFC034F3FEC033F3FDC032F385EC2B
:1030600002F003C016F202C015F201C014F200C053
:1030700013F20301826BC00E816F7F0E806F880E8A
:103080007F6F16C286F315C285F314C284F313C290
:1030900083F300013CEC04F008E3880E006E7F0E21
:1030A000016EC00E026E036A24D016C282F315C2EE
:1030B00081F314C280F313C27FF30301866BC00E49
:1030C000856FFF0E846F880E836F00013CEC04F067
:1030D00008E3880E006EFF0E016EC00E026E036ADA
:1030E00008D013C200F014C201F015C202F016C2DB
:1030F00003F003C066F102C065F101C064F100C0D5
:1031000063F156C131F355C130F354C12FF353C1AC
:103110002EF304C135F303C134F302C133F301C10B
:1031200032F385EC02F003C016F202C015F201C0C2
:1031300014F200C013F20301826BC00E816F7F0E88
:10314000806F880E7F6F16C286F315C285F314C296
:1031500084F313C283F300013CEC04F008E3880E0F
:10316000006E7F0E016EC00E026E036A24D016C27E
:1031700082F315C281F314C280F313C27FF30301FB
:10318000866BC00E856FFF0E846F880E836F000103
:103190003CEC04F008E3880E006EFF0E016EC00EDA
:1031A000026E036A08D013C200F014C201F015C207
:1031B00002F016C203F003C06AF102C069F101C057
:1031C00068F100C067F15EC131F35DC130F35CC1ED
:1031D0002FF35BC12EF308C135F307C134F306C1E9
:1031E00033F305C132F385EC02F003C016F202C0DE
:1031F00015F201C014F200C013F20301826BC00E7D
:10320000816F7F0E806F880E7F6F16C286F315C2A6
:1032100085F314C284F313C283F300013CEC04F081
:1032200008E3880E006E7F0E016EC00E026E036A08
:1032300024D016C282F315C281F314C280F313C2E4
:103240007FF30301866BC00E856FFF0E846F880EBF
:10325000836F00013CEC04F008E3880E006EFF0E63
:10326000016EC00E026E036A08D013C200F014C2D1
:1032700001F015C202F016C203F003C06EF102C0E5
:103280006DF101C06CF100C06BF162C11CF261C153
:103290001BF260C11AF25FC119F266C120F265C16A
:1032A0001FF264C11EF263C11DF2010E0201226F02
:1032B0004B0E216F00016BD56AC11CF269C11BF274
:1032C00068C11AF267C119F26EC120F26DC11FF216
:1032D0006CC11EF26BC11DF2010E0201226F430E82
:1032E000216F0001BCD5D89246C186F345C185F354
:1032F00044C184F343C183F34AC18AF349C189F3CA
:1033000048C188F347C187F300EC03F003C042F1E2
:1033100002C041F101C040F100C03FF1D8924EC15E
:1033200086F34DC185F34CC184F34BC183F342C195
:103330008AF341C189F340C188F33FC187F300ECB0
:1033400003F003C052F102C051F101C050F100C0BE
:103350004FF156C15AF155C159F154C158F153C1F9
:1033600057F142C14AF141C149F140C148F13FC161
:1033700047F152C182F351C181F350C180F34FC173
:103380007FF30301866B856B846B836B00013CECE0
:1033900004F006E30101526B516B506B4F6B1CD074
:1033A0000301826BC00E816F7F0E806F880E7F6F6E
:1033B00052C186F351C185F350C184F34FC183F3E9
:1033C00000013CEC04F009E30101526BC00E516FA7
:1033D0007F0E506F880E4F6F000152C11CF251C119
:1033E0001BF250C11AF24FC119F279EC04F002C07D
:1033F00018F201C017F218C21AF217C219F297ECAC
:1034000004F095EF1AF0020115511703F3CF01F004
:10341000F4CF00F01803F350002616511703F350B1
:103420000020026E0001000C14C216F213C215F245
:103430000201186B0A0E176F0001E5DF02C016F2D9
:1034400001C015F200016AEC02F000C015F201C0E3
:1034500016F202C017F203C018F203C086F302C0CE
:1034600085F301C084F300C083F3180E03018A6F53
:10347000B70E896F510E886F750E876F0001BBEC18
:1034800001F0D8820301866B856B846B8F0E836F8E
:1034900003C08AF302C089F301C088F300C087F338
:1034A000000100EC03F003C01CF202C01BF201C0DB
:1034B0001AF200C019F279EC04F00250000C02017B
:1034C00013530EE079C1CFFF78C1CEFF9D80F29AF1
:1034D00001017D6B020E7C6F816B806F03D0020156
:1034E0009D9001010001000C02010A6B096B0E6B3B
:1034F0000D6B0C6B0B6B126B116B106B0F6B79C13F
:10350000CFFF78C1CEFFCE50CFCF03F0156FCFCF16
:1035100016F200016AEC02F003C00EF202C00DF2D6
:1035200001C00CF200C00BF2C2D4CE50CFCF03F0DA
:103530000201156FCFCF16F200016AEC02F003C052
:1035400012F202C011F201C010F200C00FF212C25A
:1035500082F311C281F310C280F30FC27FF30EC257
:1035600086F30DC285F30CC284F30BC283F33CECEB
:1035700004F072E3D89212C286F311C285F310C22E
:1035800084F30FC283F303018A6B896B886B8F0E00
:10359000876F000100EC03F000C013F201C014F2C9
:1035A00002C015F203C016F2D88203C086F302C02F
:1035B00085F301C084F300C083F30EC28AF30DC209
:1035C00089F30CC288F30BC287F300EC03F000C050
:1035D00013F201C014F202C015F203C016F203C0C8
:1035E00031F302C030F301C02FF300C02EF3950E6B
:1035F0000301356FBF0E346F560E336F6B0E326F93
:10360000000185EC02F000C013F201C014F202C008
:1036100015F203C016F203C031F302C030F301C04B
:103620002FF300C02EF30301356B346B480E336F5C
:10363000850E326F000185EC02F003C01CF202C05F
:103640001BF201C01AF200C019F279EC04F002C0BA
:103650000AF201C009F257D0D88212C286F311C211
:1036600085F310C284F30FC283F30EC28AF30DC236
:1036700089F30CC288F30BC287F300EC03F000C09F
:1036800013F201C014F202C015F203C016F203C017
:1036900031F302C030F301C02FF300C02EF3950EBA
:1036A0000301356FBF0E346F560E336F6B0E326FE2
:1036B000000185EC02F000C013F201C014F202C058
:1036C00015F203C016F203C031F302C030F301C09B
:1036D0002FF300C02EF30301356B346B480E336FAC
:1036E000850E326F000185EC02F003C01CF202C0AF
:1036F0001BF201C01AF200C019F279EC04F002C00A
:103700000AF201C009F2020E02010925136F000E30
:103710000A21146F01011A510201145D26E308E128
:1037200013510101195DD8A002D002011ED002017F
:10373000020E09250101196F000E02010A21010183
:103740001A6F1AC13DF119C13CF11AC114F219C125
:1037500013F2000169DE02C079F101C078F10101C4
:1037600077850201136B0001AADE00018FEC06F0E1
:103770009E9040EF00F03F0E926EF10E936E800E21
:10378000946E000E956E010E966EC150C00B090925
:10379000C16EC080C082C084C08EC280820ED56ED1
:1037A000B50ECD6EC00EF2129D8A1AEF39F00101EE
:1037B000CA6BCA51030822E3010ED06FCB0ECF6F44
:1037C000CA51CF25016E000ED021036E0150E96E63
:1037D00003C0EAFFC951CA25D16FF2CFD2F1F29CE2
:1037E000F29ED1C1A9FFA69CA69EA680A850D2BDDC
:1037F000F28CD2BFF28EEF6ECA2BDBD7CBC100F0BA
:10380000CCC101F0CDC102F0CEC103F00001000C2B
:10381000010E0101C925CA6FF2CFCBF1F29CF29ED5
:10382000CAC1A9FFA69CA69EA680A850CBBDF28CBB
:10383000CBBFF28ECC6F196AF2BC198CF29CF2BE2F
:10384000198EF29E0201166BCCC115F2010E186F93
:10385000176B0001D8DD19BCF28C19BEF28E02C0C4
:10386000CDF101C0CCF1F2CFCAF1F29CF29EC9C1F8
:10387000A9FFA69CA69EA680A8500101CABDF28CF5
:10388000CABFF28ECC25016E000ECD21036E015011
:10389000016E0350026E0001000C0101CA51CC19E7
:1038A000800BCE6FCAAF05D0C91FCA1FC92BD8B4B1
:1038B000CA2BCCAF05D0CB1FCC1FCB2BD8B4CC2B75
:1038C000C951CB03F3CF01F0F4CF00F0CC03F35098
:1038D0000026CA51CB03F3500020026ECEAF05D0B4
:1038E000011E021E012AD8B4022A0001000C0201A6
:1038F000032D19D0FAC13AF0F9C139F0F8C138F006
:10390000F7C137F0FEC13EF0FDC13DF0FCC13CF017
:10391000FBC13BF002C242F001C241F000C240F0E4
:10392000FFC13FF018D0FAC146F0F9C145F0F8C127
:1039300044F0F7C143F0FEC14AF0FDC149F0FCC1BB
:1039400048F0FBC147F002C24EF001C24DF000C288
:103950004CF0FFC14BF00001F1EF1EF0196AF2BC10
:10396000198CF29CF2BE198EF29EE1C182F3E0C185
:1039700081F3DFC180F3DEC17FF3E5C186F3E4C1EB
:1039800085F3E3C184F3E2C183F33CEC04F019BC9A
:10399000F28C19BEF28ED8A0E0D1196AF2BC198C53
:1039A000F29CF2BE198EF29E0301826B816B806BDA
:1039B0007F6BE1C186F3E0C185F3DFC184F3DEC133
:1039C00083F300013CEC04F019BCF28C19BEF28EBA
:1039D00005E3006A016A026A036A2FD0196AF2BC21
:1039E000198CF29CF2BE198EF29EE1C182F3E0C105
:1039F00081F3DFC180F3DEC17FF30301866BC00E6C
:103A0000856FFF0E846F880E836F00013CEC04F01D
:103A100019BCF28C19BEF28E08E3880E006EFF0E00
:103A2000016EC00E026E036A08D0DEC100F0DFC175
:103A300001F0E0C102F0E1C103F003C0EEF102C009
:103A4000EDF101C0ECF100C0EBF1196AF2BC198C88
:103A5000F29CF2BE198EF29EE5C182F3E4C181F3BD
:103A6000E3C180F3E2C17FF30301866B856B846B56
:103A7000836B00013CEC04F019BCF28C19BEF28E91
:103A800005E3006A016A026A036A2FD0196AF2BC70
:103A9000198CF29CF2BE198EF29E0301826BC00E4D
:103AA000816F7F0E806F880E7F6FE5C186F3E4C162
:103AB00085F3E3C184F3E2C183F300013CEC04F03D
:103AC00019BCF28C19BEF28E08E3880E006E7F0ED0
:103AD000016EC00E026E036A08D0E2C100F0E3C1BD
:103AE00001F0E4C102F0E5C103F003C0F2F102C04D
:103AF000F1F101C0F0F100C0EFF1196AF2BC198CCC
:103B0000F29CF2BE198EF29EE9C182F3E8C181F304
:103B1000E7C180F3E6C17FF30301866B856B846B9D
:103B2000800E836F00013CEC04F019BCF28C19BECE
:103B3000F28E4DE3DEC100F0DFC101F0E0C102F022
:103B4000E1C103F0019ED892196AF2BC198CF29C73
:103B5000F2BE198EF29EE5C186F3E4C185F3E3C19E
:103B600084F3E2C183F3E1C18AF3E0C189F301C0C8
:103B700088F3DEC187F300EC03F019BCF28C19BEA8
:103B8000F28E00C0F7F101C0F8F102C0F9F103C0F4
:103B9000FAF1196AF2BC198CF29CF2BE198EF29EEF
:103BA00003C086F302C085F301C084F300C083F331
:103BB00003018A6B896B100E886F820E876F00017C
:103BC000BBEC01F019BCF28C19BEF28EBDD0DEC187
:103BD00000F0DFC101F0E0C102F0E1C103F0019E9D
:103BE000D892196AF2BC198CF29CF2BE198EF29E20
:103BF000E5C186F3E4C185F3E3C184F3E2C183F355
:103C0000E1C18AF3E0C189F301C088F3DEC187F323
:103C100000EC03F019BCF28C19BEF28E00C0F7F173
:103C200001C0F8F102C0F9F103C0FAF1196AF2BC5F
:103C3000198CF29CF2BE198EF29E03C086F302C06C
:103C400085F301C084F300C083F303018A6B896BA1
:103C5000886B800E876F0001BBEC01F019BCF28C01
:103C600019BEF28E196AF2BC198CF29CF2BE198E42
:103C7000F29E03C082F302C081F301C080F300C052
:103C80007FF3E9C186F3E8C185F3E7C184F3E6C1B8
:103C900083F33CEC04F019BCF28C19BEF28E4CE3B9
:103CA000DEC100F0DFC101F0E0C102F0E1C103F0CC
:103CB000019ED892196AF2BC198CF29CF2BE198E40
:103CC000F29EE5C186F3E4C185F3E3C184F3E2C16A
:103CD00083F3E1C18AF3E0C189F301C088F3DEC157
:103CE00087F300EC03F019BCF28C19BEF28E00C011
:103CF000F7F101C0F8F102C0F9F103C0FAF1196A55
:103D0000F2BC198CF29CF2BE198EF29E03C086F3AF
:103D100002C085F301C084F300C083F303018A6B02
:103D2000896B886B800E876F0001BBEC01F019BCBA
:103D3000F28C19BEF28E08D0E6C100F0E7C101F0A6
:103D4000E8C102F0E9C103F003C0F6F102C0F5F1E9
:103D500001C0F4F100C0F3F129D00101EA2D13D024
:103D6000EE6BED6B960EEC6F880EEB6FF26BF16BFA
:103D7000160EF06F880EEF6FF66BF56B160EF46F84
:103D8000870EF36F12D0EE6BED6BA00EEC6F830E0F
:103D9000EB6FF26BF16B200EF06F830EEF6FF66B33
:103DA000F56B200EF46F820EF36F0001EBC1F7F19B
:103DB000ECC1F8F1EDC1F9F1EEC1FAF1EFC1FBF19F
:103DC000F0C1FCF1F1C1FDF1F2C1FEF1F3C1FFF16F
:103DD000F4C100F2F5C101F2F6C102F2EAC103F248
:103DE00086D5000CDEC100F0DFC101F0E0C102F0B9
:103DF000E1C103F0019ED892196AF2BC198CF29CC1
:103E0000F2BE198EF29EE5C186F3E4C185F3E3C1EB
:103E100084F3E2C183F3E1C18AF3E0C189F301C015
:103E200088F3DEC187F300EC03F019BCF28C19BEF5
:103E3000F28E00C0EFF101C0F0F102C0F1F103C059
:103E4000F2F1196AF2BC198CF29CF2BE198EF29E44
:103E500003C086F302C085F301C084F300C083F37E
:103E600003018A6B896B886B810E876F0001BBEC45
:103E700001F019BCF28C19BEF28E03C0EEF102C043
:103E8000EDF101C0ECF100C0EBF10101EA2D75D0BC
:103E9000D882196AF2BC198CF29CF2BE198EF29E7D
:103EA000E1C186F3E0C185F3DFC184F3DEC183F3B2
:103EB000EEC18AF3EDC189F3ECC188F3EBC187F35E
:103EC000000100EC03F019BCF28C19BEF28E03C0A5
:103ED00052F002C051F001C050F000C04FF0D89233
:103EE000196AF2BC198CF29CF2BE198EF29E52C075
:103EF00086F351C085F350C084F34FC083F3EEC105
:103F00008AF3EDC189F3ECC188F3EBC187F300ECD0
:103F100003F019BCF28C19BEF28E03C056F002C039
:103F200055F001C054F000C053F0D892196AF2BCA9
:103F3000198CF29CF2BE198EF29E56C086F355C0C3
:103F400085F354C084F353C083F3EEC18AF3EDC10B
:103F500089F3ECC188F3EBC187F300EC03F019BCE3
:103F6000F28C19BEF28E03C05AF002C059F001C0A3
:103F700058F000C057F074D00101D882196AF2BC21
:103F8000198CF29CF2BE198EF29EE1C186F3E0C15B
:103F900085F3DFC184F3DEC183F3EEC18AF3EDC1A3
:103FA00089F3ECC188F3EBC187F3000100EC03F067
:103FB00019BCF28C19BEF28E03C08EF002C08DF0D7
:103FC00001C08CF000C08BF0D892196AF2BC198C39
:103FD000F29CF2BE198EF29E8EC086F38DC085F3E0
:103FE0008CC084F38BC083F3EEC18AF3EDC189F3F7
:103FF000ECC188F3EBC187F300EC03F019BCF28C41
:1040000019BEF28E03C092F002C091F001C090F090
:1040100000C08FF0D892196AF2BC198CF29CF2BEE3
:10402000198EF29E92C086F391C085F390C084F3FE
:104030008FC083F3EEC18AF3EDC189F3ECC188F33D
:10404000EBC187F300EC03F019BCF28C19BEF28EC1
:1040500003C096F002C095F001C094F000C093F048
:10406000000CDEC100F0DFC101F0E0C102F0E1C1EF
:1040700003F0019ED892196AF2BC198CF29CF2BE30
:10408000198EF29EE5C186F3E4C185F3E3C184F3A2
:10409000E2C183F3E1C18AF3E0C189F301C088F38F
:1040A000DEC187F300EC03F019BCF28C19BEF28E6E
:1040B00000C0EFF101C0F0F102C0F1F103C0F2F174
:1040C000196AF2BC198CF29CF2BE198EF29E03C0E2
:1040D00086F302C085F301C084F300C083F30301BB
:1040E0008A6B896B886B810E876F0001BBEC01F0D6
:1040F00019BCF28C19BEF28E03C0EEF102C0EDF1D4
:1041000001C0ECF100C0EBF10101EA2D57D056C01F
:104110005EF055C05DF054C05CF053C05BF0D892C7
:10412000196AF2BC198CF29CF2BE198EF29E5EC026
:1041300086F35DC085F35CC084F35BC083F3EEC19E
:104140008AF3EDC189F3ECC188F3EBC187F3000179
:1041500000EC03F019BCF28C19BEF28E03C062F0C1
:1041600002C061F001C060F000C05FF0D892196A2F
:10417000F2BC198CF29CF2BE198EF29E62C086F3DC
:1041800061C085F360C084F35FC083F3EEC18AF33E
:10419000EDC189F3ECC188F3EBC187F300EC03F0C8
:1041A00019BCF28C19BEF28E03C066F002C065F035
:1041B00001C064F000C063F056D0010192C09AF0D3
:1041C00091C099F090C098F08FC097F0D892196A7A
:1041D000F2BC198CF29CF2BE198EF29E9AC086F344
:1041E00099C085F398C084F397C083F3EEC18AF336
:1041F000EDC189F3ECC188F3EBC187F3000100EC5A
:1042000003F019BCF28C19BEF28E03C09EF002C0FE
:104210009DF001C09CF000C09BF0D892196AF2BCDE
:10422000198CF29CF2BE198EF29E9EC086F39DC040
:1042300085F39CC084F39BC083F3EEC18AF3EDC188
:1042400089F3ECC188F3EBC187F300EC03F019BCF0
:10425000F28C19BEF28E03C0A2F002C0A1F001C020
:10426000A0F000C09FF0000CDEC100F0DFC101F043
:10427000E0C102F0E1C103F0019ED892196AF2BCDC
:10428000198CF29CF2BE198EF29EE5C186F3E4C150
:1042900085F3E3C184F3E2C183F3E1C18AF3E0C1B2
:1042A00089F301C088F3DEC187F300EC03F019BC89
:1042B000F28C19BEF28E00C0EFF101C0F0F102C025
:1042C000F1F103C0F2F1196AF2BC198CF29CF2BE52
:1042D000198EF29E03C086F302C085F301C084F3F9
:1042E00000C083F303018A6B896B886B810E876F33
:1042F0000001BBEC01F019BCF28C19BEF28E03C0B8
:10430000EEF102C0EDF101C0ECF100C0EBF10101F2
:10431000EA2D57D062C06AF061C069F060C068F0F1
:104320005FC067F0D892196AF2BC198CF29CF2BE99
:10433000198EF29E6AC086F369C085F368C084F363
:1043400067C083F3EEC18AF3EDC189F3ECC188F352
:10435000EBC187F3000100EC03F019BCF28C19BE2D
:10436000F28E03C06EF002C06DF001C06CF000C0B0
:104370006BF0D892196AF2BC198CF29CF2BE198EBD
:10438000F29E6EC086F36DC085F36CC084F36BC083
:1043900083F3EEC18AF3EDC189F3ECC188F3EBC17D
:1043A00087F300EC03F019BCF28C19BEF28E03C047
:1043B00072F002C071F001C070F000C06FF056D012
:1043C00001019EC0A6F09DC0A5F09CC0A4F09BC0BA
:1043D000A3F0D892196AF2BC198CF29CF2BE198E25
:1043E000F29EA6C086F3A5C085F3A4C084F3A3C043
:1043F00083F3EEC18AF3EDC189F3ECC188F3EBC11D
:1044000087F3000100EC03F019BCF28C19BEF28EA8
:1044100003C0AAF002C0A9F001C0A8F000C0A7F034
:10442000D892196AF2BC198CF29CF2BE198EF29ED7
:10443000AAC086F3A9C085F3A8C084F3A7C083F3FC
:10444000EEC18AF3EDC189F3ECC188F3EBC187F3C8
:1044500000EC03F019BCF28C19BEF28E03C0AEF072
:1044600002C0ADF001C0ACF000C0ABF0000CDEC18A
:1044700000F0DFC101F0E0C102F0E1C103F0019EF4
:10448000D892196AF2BC198CF29CF2BE198EF29E77
:10449000E5C186F3E4C185F3E3C184F3E2C183F3AC
:1044A000E1C18AF3E0C189F301C088F3DEC187F37B
:1044B00000EC03F019BCF28C19BEF28E00C0EFF1D3
:1044C00001C0F0F102C0F1F103C0F2F1196AF2BCCF
:1044D000198CF29CF2BE198EF29E03C086F302C0C4
:1044E00085F301C084F300C083F303018A6B896BF9
:1044F000886B810E876F0001BBEC01F019BCF28C58
:1045000019BEF28E03C0EEF102C0EDF101C0ECF174
:1045100000C0EBF10101EA2D57D06EC076F06DC0FE
:1045200075F06CC074F06BC073F0D892196AF2BC6D
:10453000198CF29CF2BE198EF29E76C086F375C07D
:1045400085F374C084F373C083F3EEC18AF3EDC1C5
:1045500089F3ECC188F3EBC187F3000100EC03F0B1
:1045600019BCF28C19BEF28E03C07AF002C079F049
:1045700001C078F000C077F0D892196AF2BC198CAB
:10458000F29CF2BE198EF29E7AC086F379C085F352
:1045900078C084F377C083F3EEC18AF3EDC189F369
:1045A000ECC188F3EBC187F300EC03F019BCF28C8B
:1045B00019BEF28E03C07EF002C07DF001C07CF017
:1045C00000C07BF056D00101AAC0B2F0A9C0B1F082
:1045D000A8C0B0F0A7C0AFF0D892196AF2BC198C8D
:1045E000F29CF2BE198EF29EB2C086F3B1C085F382
:1045F000B0C084F3AFC083F3EEC18AF3EDC189F399
:10460000ECC188F3EBC187F3000100EC03F019BCA7
:10461000F28C19BEF28E03C0B6F002C0B5F001C034
:10462000B4F000C0B3F0D892196AF2BC198CF29CB5
:10463000F2BE198EF29EB6C086F3B5C085F3B4C043
:1046400084F3B3C083F3EEC18AF3EDC189F3ECC107
:1046500088F3EBC187F300EC03F019BCF28C19BEB0
:10466000F28E03C0BAF002C0B9F001C0B8F000C0C9
:10467000B7F0000CDEC100F0DFC101F0E0C102F0D4
:10468000E1C103F0019ED892196AF2BC198CF29C28
:10469000F2BE198EF29EE5C186F3E4C185F3E3C153
:1046A00084F3E2C183F3E1C18AF3E0C189F301C07D
:1046B00088F3DEC187F300EC03F019BCF28C19BE5D
:1046C000F28E00C0EFF101C0F0F102C0F1F103C0C1
:1046D000F2F1196AF2BC198CF29CF2BE198EF29EAC
:1046E00003C086F302C085F301C084F300C083F3E6
:1046F00003018A6B896B886B810E876F0001BBECAD
:1047000001F019BCF28C19BEF28E03C0EEF102C0AA
:10471000EDF101C0ECF100C0EBF10101EA2D57D041
:104720007AC082F079C081F078C080F077C07FF0E5
:10473000D892196AF2BC198CF29CF2BE198EF29EC4
:1047400082C086F381C085F380C084F37FC083F389
:10475000EEC18AF3EDC189F3ECC188F3EBC187F3B5
:10476000000100EC03F019BCF28C19BEF28E03C0FC
:1047700086F002C085F001C084F000C083F0D892BA
:10478000196AF2BC198CF29CF2BE198EF29E86C098
:1047900086F385C085F384C084F383C083F3EEC1C0
:1047A0008AF3EDC189F3ECC188F3EBC187F300EC28
:1047B00003F019BCF28C19BEF28E03C08AF002C05D
:1047C00089F001C088F000C087F056D00101B6C062
:1047D000BEF0B5C0BDF0B4C0BCF0B3C0BBF0D89261
:1047E000196AF2BC198CF29CF2BE198EF29EBEC000
:1047F00086F3BDC085F3BCC084F3BBC083F3EEC1B8
:104800008AF3EDC189F3ECC188F3EBC187F30001B2
:1048100000EC03F019BCF28C19BEF28E03C0C2F09A
:1048200002C0C1F001C0C0F000C0BFF0D892196A48
:10483000F2BC198CF29CF2BE198EF29EC2C086F3B5
:10484000C1C085F3C0C084F3BFC083F3EEC18AF357
:10485000EDC189F3ECC188F3EBC187F300EC03F001
:1048600019BCF28C19BEF28E03C0C6F002C0C5F0AE
:1048700001C0C4F000C0C3F0000C196AF2BC198C6E
:10488000F29CF2BE198EF29ECDC11AF2CCC119F281
:1048900093EC01F019BCF28C19BEF28E00C0D2F17B
:1048A00001C0D3F102C0D4F103C0D5F1196AF2BC42
:1048B000198CF29CF2BE198EF29ECFC116F2CEC1B7
:1048C00015F26AEC02F019BCF28C19BEF28E00C02F
:1048D000D6F101C0D7F102C0D8F103C0D9F1196AED
:1048E000F2BC198CF29CF2BE198EF29ED1C116F266
:1048F000D0C115F26AEC02F019BCF28C19BEF28E2E
:1049000000C0DAF101C0DBF102C0DCF103C0DDF16F
:10491000D5C1E1F1D4C1E0F1D3C1DFF1D2C1DEF103
:10492000D9C1E5F1D8C1E4F1D7C1E3F1D6C1E2F1D3
:1049300003C0E9F102C0E8F101C0E7F100C0E6F10F
:104940000101EA6B0001AEEC1CF00101D56BD46BE8
:10495000D36BD26BD96BD86BD76BD66BDD6BDC6B43
:10496000DB6BDA6B43C0DEF144C0DFF145C0E0F140
:1049700046C0E1F147C0E2F148C0E3F149C0E4F1CB
:104980004AC0E5F14BC0E6F14CC0E7F14DC0E8F19B
:104990004EC0E9F1EA6B0001F2EC1EF00101D56BAB
:1049A000D46BD36BD26BD96BD86BD76BD66BDD6BFB
:1049B000DC6BDB6BDA6B43C0DEF144C0DFF145C07A
:1049C000E0F146C0E1F147C0E2F148C0E3F149C07F
:1049D000E4F14AC0E5F14BC0E6F14CC0E7F14DC04F
:1049E000E8F14EC0E9F1EA6B000131EC20F0010181
:1049F000D56BD46BD36BD26BD96BD86BD76BD66BB3
:104A0000DD6BDC6BDB6BDA6B43C0DEF144C0DFF1E6
:104A100045C0E0F146C0E1F147C0E2F148C0E3F132
:104A200049C0E4F14AC0E5F14BC0E6F14CC0E7F102
:104A30004DC0E8F14EC0E9F1EA6B000115DC01015F
:104A4000D56BD46BD36BD26BD96BD86BD76BD66B62
:104A5000DD6BDC6BDB6BDA6B43C0DEF144C0DFF196
:104A600045C0E0F146C0E1F147C0E2F148C0E3F1E2
:104A700049C0E4F14AC0E5F14BC0E6F14CC0E7F1B2
:104A80004DC0E8F14EC0E9F1EA6B0001F0DC010134
:104A9000D56BD46BD36BD26BD96BD86BD76BD66B12
:104AA000DD6BDC6BDB6BDA6B43C0DEF144C0DFF146
:104AB00045C0E0F146C0E1F147C0E2F148C0E3F192
:104AC00049C0E4F14AC0E5F14BC0E6F14CC0E7F162
:104AD0004DC0E8F14EC0E9F1EA6B0001CBDDD3EF48
:104AE00026F0196AF2BC198CF29CF2BE198EF29E65
:104AF000CDC11AF2CCC119F293EC01F019BCF28CC1
:104B000019BEF28E00C0D2F101C0D3F102C0D4F1BF
:104B100003C0D5F1196AF2BC198CF29CF2BE198E51
:104B2000F29ECFC116F2CEC115F26AEC02F019BCAA
:104B3000F28C19BEF28E00C0D6F101C0D7F102C0CE
:104B4000D8F103C0D9F1196AF2BC198CF29CF2BEFB
:104B5000198EF29ED1C116F2D0C115F26AEC02F0A4
:104B600019BCF28C19BEF28E00C0DAF101C0DBF183
:104B700002C0DCF103C0DDF1D5C1E1F1D4C1E0F147
:104B8000D3C1DFF1D2C1DEF1D9C1E5F1D8C1E4F181
:104B9000D7C1E3F1D6C1E2F103C0E9F102C0E8F107
:104BA00001C0E7F100C0E6F1010E0101EA6F00016A
:104BB000AEEC1CF00101D56BD46BD36BD26BD96B0F
:104BC000D86BD76BD66BDD6BDC6BDB6BDA6B37C00E
:104BD000DEF138C0DFF139C0E0F13AC0E1F13BC0AD
:104BE000E2F13CC0E3F13DC0E4F13EC0E5F13FC07D
:104BF000E6F140C0E7F141C0E8F142C0E9F1010E41
:104C0000EA6F0001F2EC1EF00101D56BD46BD36B9F
:104C1000D26BD96BD86BD76BD66BDD6BDC6BDB6B78
:104C2000DA6B37C0DEF138C0DFF139C0E0F13AC0ED
:104C3000E1F13BC0E2F13CC0E3F13DC0E4F13EC034
:104C4000E5F13FC0E6F140C0E7F141C0E8F142C004
:104C5000E9F1010EEA6F000131EC20F00101D56BA2
:104C6000D46BD36BD26BD96BD86BD76BD66BDD6B38
:104C7000DC6BDB6BDA6B37C0DEF138C0DFF139C0DB
:104C8000E0F13AC0E1F13BC0E2F13CC0E3F13DC0EC
:104C9000E4F13EC0E5F13FC0E6F140C0E7F141C0BC
:104CA000E8F142C0E9F1010EEA6F000134EC21F0B5
:104CB0000101D56BD46BD36BD26BD96BD86BD76B2F
:104CC000D66BDD6BDC6BDB6BDA6B37C0DEF138C0CB
:104CD000DFF139C0E0F13AC0E1F13BC0E2F13CC0A4
:104CE000E3F13DC0E4F13EC0E5F13FC0E6F140C074
:104CF000E7F141C0E8F142C0E9F1010EEA6F0001BD
:104D000037EC22F00101D56BD46BD36BD26BD96B2E
:104D1000D86BD76BD66BDD6BDC6BDB6BDA6B37C0BC
:104D2000DEF138C0DFF139C0E0F13AC0E1F13BC05B
:104D3000E2F13CC0E3F13DC0E4F13EC0E5F13FC02B
:104D4000E6F140C0E7F141C0E8F142C0E9F1010EEF
:104D5000EA6F00018FDCF9EF26F0196AF2BC198CBA
:104D6000F29CF2BE198EF29E18C11CF217C11BF202
:104D700016C11AF215C119F279EC04F019BCF28CC3
:104D800019BEF28E02C0CBF101C0CAF10AC1CDF149
:104D900009C1CCF10CC1CFF10BC1CEF102C0D1F1F0
:104DA00001C0D0F16AD5196AF2BC198CF29CF2BE2E
:104DB000198EF29E14C11CF213C11BF212C11AF219
:104DC00011C119F279EC04F019BCF28C19BEF28E03
:104DD00002C0CBF101C0CAF10EC1CDF10DC1CCF1C1
:104DE00010C1CFF10FC1CEF102C0D1F101C0D0F19D
:104DF00078D6196AF2BC198CF29CF2BE198EF29E1A
:104E000046C01CF245C01BF244C01AF243C019F25E
:104E100079EC04F019BCF28C19BEF28E02C00AF1D2
:104E200001C009F1196AF2BC198CF29CF2BE198E0C
:104E3000F29E4AC01CF249C01BF248C01AF247C099
:104E400019F279EC04F019BCF28C19BEF28E02C092
:104E50000CF101C00BF14EC018F14DC017F14CC060
:104E600016F14BC015F1196AF2BC198CF29CF2BE16
:104E7000198EF29E3AC01CF239C01BF238C01AF2E9
:104E800037C019F279EC04F019BCF28C19BEF28E1D
:104E900002C00EF101C00DF1196AF2BC198CF29C2E
:104EA000F2BE198EF29E3EC01CF23DC01BF23CC009
:104EB0001AF23BC019F279EC04F019BCF28C19BE5D
:104EC000F28E02C010F101C00FF142C014F141C0D6
:104ED00013F140C012F13FC011F1000C01017651F5
:104EE000000A000111E0010A15E0030A19E0010AB5
:104EF0001DE0070A21E0010A25E0030A29E0010A72
:104F00002DE00F0A31E036D0000E0609CA6EFF0E02
:104F1000CB6E36D0000E0609CA6E7F0ECB6E30D037
:104F2000000E0609CA6E3F0ECB6E2AD0000E050990
:104F3000CA6EAA0ECB6E24D0000E0509CA6E7F0E73
:104F4000CB6E1ED0000E0509CA6E650ECB6E18D052
:104F5000000E0509CA6E480ECB6E12D0000E040971
:104F6000CA6EFF0ECB6E0CD0000E0409CA6EA50EE1
:104F7000CB6E06D0000E0409CA6EFF0ECB6E00D0B9
:104F8000000C9EA8FED7AD6E000CF06BEF6BEE6BC5
:104F9000ED6B0101746B736B4A6B496B486B476B2C
:104FA0005A6B596B586B576B1B911B931B971B9537
:104FB0003692369436963698369A369C369E779147
:104FC0007793779577977799779B7F997F9B7F9D4D
:104FD0007F9F779F7F917F957F93816B010E806F7D
:104FE000F2CFC9F1F29CF29E370EA96EA69CA69E46
:104FF000A680A850C9BDF28CC9BFF28E7E6FF2CFD9
:10500000C9F1F29CF29E360EA96EA69CA69EA680C1
:10501000A850C9BDF28CC9BFF28E016E779D01B058
:10502000778DC96B0001D7EC1BF003C0CAF002C03A
:10503000C9F001C0C8F000C0C7F0080E0101C96F77
:105040000001D7EC1BF003C0CEF002C0CDF001C0D0
:10505000CCF000C0CBF0040E0101C96F0001D7EC09
:105060001BF003C0D2F002C0D1F001C0D0F000C0EC
:10507000CFF00C0E0101C96F000108EC1CF002C05A
:10508000D4F001C0D3F0196AF2BC198CF29CF2BEC4
:10509000198EF29ED4C014F2D3C013F214EC1AF09D
:1050A00019BCF28C19BEF28E02C07BF101C07AF1FC
:1050B0007BC1CFFF7AC1CEFF0E0E0101C96F000187
:1050C00008EC1CF002C070F101C06FF1F2CFC9F121
:1050D000F29CF29E100EA96EA69CA69EA680A850D9
:1050E0000101C9BDF28CC9BFF28E826F260EC96F55
:1050F000000108EC1CF002C00CF101C00BF10CC166
:10510000CAF10BC1C9F1FF0E0101CC6FCB6F0001D9
:105110004DEC1CF002C00AF101C009F1240E01019E
:10512000C96F000108EC1CF002C010F101C00FF1C2
:1051300010C1CAF10FC1C9F1FF0E0101CC6FCB6FD5
:1051400000014DEC1CF002C00EF101C00DF1180E73
:105150000101C96F0001D7EC1BF003C0FCF002C0D5
:10516000FBF001C0FAF000C0F9F01C0E0101C96F9C
:105170000001D7EC1BF003C004F102C003F101C031
:1051800002F100C001F1200E0101C96F0001D7EC4E
:105190001BF003C000F102C0FFF001C0FEF000C030
:1051A000FDF0320E0101C96F0001D7EC1BF003C006
:1051B00008F102C007F101C006F100C005F1280E98
:1051C0000101C96F000108EC1CF002C01AF101C016
:1051D00019F12A0E0101C96F0001D7EC1BF003C0C1
:1051E00014F102C013F101C012F100C011F12E0E32
:1051F0000101C96F0001D7EC1BF003C018F102C018
:1052000017F101C016F100C015F1196AF2BC198C32
:10521000F29CF2BE198EF29E1AC114F219C113F259
:1052200014EC1AF019BCF28C19BEF28E02C079F19E
:1052300001C078F179C1CFFF78C1CEFF8EDDF2CF0A
:10524000C9F1F29CF29E120EA96EA69CA69EA680A3
:10525000A8500101C9BDF28CC9BFF28E756F75519E
:10526000000A00010FE0010A15E0030A1BE0010A31
:1052700021E0070A27E0010A2BE0030A31E0010AD6
:1052800037E03ED0B886080EAF6E020EB06EA60EA6
:10529000AC6E3ED0B886460EAF6E100EB06EA60E47
:1052A000AC6E36D0B886220EAF6E080EB06EA60E6B
:1052B000AC6E2ED0B886110EAF6E040EB06EA60E78
:1052C000AC6E26D0B896400EAF6EA60EAC6E20D057
:1052D000B886AD0EAF6E000EB06EA60EAC6E18D0D6
:1052E000B886940EAF6E000EB06EA60EAC6E10D0E7
:1052F000B886810EAF6E000EB06EA60EAC6E08D0F2
:10530000B886080EAF6E020EB06EA60EAC6E00D060
:10531000F2CFC9F1F29CF29E160EA96EA69CA69E33
:10532000A680A8500101C9BDF28CC9BFF28EA36F3F
:10533000A351000A000107E0010A08E0030A09E09E
:10534000010A0AE00CD001017F970CD001017F8790
:1053500009D001017F9706D001017F8703D00101A9
:105360007F8700D0F2CFC9F1F29CF29E140EA96E95
:10537000A69CA69EA680A850C9BDF28CC9BFF28E7D
:10538000766F0001ABDD94948B94969C0C0EBD6EF1
:10539000B76AB66A94928B92BA6EBE6ABB6ACAC08A
:1053A000D8F0C9C0D7F0C8C0D6F0C7C0D5F0D2C0B9
:1053B000E0F0D1C0DFF0D0C0DEF0CFC0DDF0CEC075
:1053C000DCF0CDC0DBF0CCC0DAF0CBC0D9F0D4C07B
:1053D000E2F0D3C0E1F082C1C2F10101C19177B91D
:1053E000C181C19577BBC185C1937FB9C1833E9708
:1053F0001BB73E873E951BB53E853E911BB13E8156
:105400003E931BB33E83FCC01FF1FBC01EF1FAC0EC
:105410001DF1F9C01CF104C127F103C126F102C13D
:1054200025F101C124F100C123F1FFC022F1FEC02A
:1054300021F1FDC020F108C12BF107C12AF106C1FD
:1054400029F105C128F11AC13DF119C13CF10AC188
:105450002DF109C12CF10CC12FF10BC12EF10EC1A0
:1054600031F10DC130F110C133F10FC132F114C16E
:1054700037F113C136F112C135F111C134F118C140
:105480003BF117C13AF116C139F115C138F1210EBE
:10549000000177DD1CEF39F00101D251016AD15DC5
:1054A00003E2D1C100F00CD0006A080ED36FD137EF
:1054B0000036D251005CD8B0006E0136D32FF7D73A
:1054C0000001000C200E0101CCA9300ECD6FCBC124
:1054D00000F0CBAF07D0001E002A00C0CBF12D0E8C
:1054E000CD6FCC8F0150CBC1D1F1640ED26F0001D2
:1054F000D3DF00C0CBF1300E01240101CE6FCBC150
:10550000D1F10A0ED26F0001C7DF300E0024010175
:10551000D06F300E0124CF6FCDC100F0CCA702D0E8
:10552000CCAFCC95CCB90BD0CCAF22D0CCB520D061
:1055300000C0CEF1CCB31CD000C0CFF119D0300EDA
:10554000CE5D16E100C0CEF1200ECD6FCCA704D009
:10555000CC95CC83CCAFCC93300ECF5D09E100C0AD
:10556000CFF1200ECE6FCCA7F7D7CC93CCAFCC9198
:10557000CCA504D0CD519EA8FED7AD6ECCA304D04F
:10558000CE519EA8FED7AD6ECCA104D0CF519EA81F
:10559000FED7AD6ED0519EA8FED7AD6E0001000CB7
:1055A000EACFD3F1E9CFD2F10101CCAF08D0D28F4D
:1055B000D2A9D22BCB1FCC1FCB2BD8B4CC2BCC3920
:1055C000F009CE6FCE27E20FCF6F320FD16FCC51E3
:1055D0000F0BCF27CF27D127E90FD06FD027D027A8
:1055E000CB390F0BD027D127D037D137D11FD137A7
:1055F000CB510F0BD127CE37070ECD6F0A0ED00738
:10560000D127FDE3CF07D027FDE3CE07CF27FDE36A
:10561000CD07CE27FDE3010EEA6ECD0EE96E070E33
:10562000D215D29DE906D21507E1D2B9E92AD2B93D
:1056300003D0200E006E1CD0E926D10EE95CD8B450
:10564000D28DEF50006E08E1D2BD06D0D2B914D091
:10565000D2B702D0200E0BD0D2AF06D02D0E006EE6
:10566000ED50D29DD29F04D0D287D299300E002621
:1056700000509EA8FED7AD6EEE50D2ADDED7000131
:10568000000C0101D651B608D66F036AD7C1DAF112
:10569000D78FD890D733D833D9330332023201327F
:1056A0000032D62FF6D7DAAF0BD0001E011E021E35
:1056B000031E002AD8B4012AD8B4022AD8B4032A77
:1056C0000001DBEF2BF0006A016A026A036A010144
:1056D000DE6BDF6BE06BE16BDD51DC11DB11DA11AE
:1056E0002CE0200EE26FD890D637D737D837D9378D
:1056F000DE37DF37E037E137DD51E15D08E1DC51CE
:10570000E05D05E1DB51DF5D02E1DA51DE5D0FE3D3
:10571000DA51DE5FDB51D8A0DB3DDF5FDC51D8A082
:10572000DC3DE05FDD51D8A0DD3DE15FD880003693
:10573000013602360336E22FD6D7010EEA6EDE0EB0
:10574000E96E0001000CE9500101CE6FCD51D06F20
:1057500028E0196AF2BC198CF29CF2BE198EF29EF6
:10576000CCC131F3CBC130F3CAC12FF3C9C12EF381
:105770000301356B346B200E336F820E326F0001E4
:1057800085EC02F019BCF28C19BEF28E03C0CCF18C
:1057900002C0CBF101C0CAF100C0C9F10101D02F94
:1057A000D8D7CCC1D9F1CBC1D8F1CAC1D7F1C9C1C1
:1057B000D6F1000166D703C0CCF102C0CBF101C025
:1057C000CAF100C0C9F10101CCAF0DD0CE07CE8B1C
:1057D000C91FCA1FCB1FCC1FC92BD8B4CA2BD8B422
:1057E000CB2BD8B4CC2B3B0ED56F9A0ED46FCA0EF0
:1057F000D36FD26B0A0ED06FCD51D8B4CE2BCCC1A3
:10580000D9F1CBC1D8F1CAC1D7F1C9C1D6F1D5C13F
:10581000DDF1D4C1DCF1D3C1DBF1D2C1DAF1000199
:1058200052DF0150EFCFC9F1ECCFCAF1ECCFCBF191
:10583000ECCFCCF1005213E10101CD29D05DD8A409
:1058400002D000010CD0CE510DE00F0BD05D01E075
:105850003CE2CEBF3AD0CEBD05D0200E31D0200ED6
:105860000101CE17CEAB0DD0CE9BCD51D8A4CE0723
:105870000050CE6F2D0E9EA8FED7AD6ECE51006E9D
:10588000CE6BCD51D05D0BE10050CE6F2E0E9EA899
:10589000FED7AD6ECE51006E200ECE17000E300E2C
:1058A000CEAB0ED0CE9BCD51D8A4CE070050CE6F3C
:1058B0002D0E9EA8FED7AD6ECE51006ECE6B300E73
:1058C000002600509EA8FED7AD6ED5C1D9F1D4C137
:1058D000D8F1D3C1D7F1D2C1D6F1DD6BDC6BDB6B74
:1058E0000A0EDA6F0001EFDE03C0D5F102C0D4F179
:1058F00001C0D3F100C0D2F10101D02F80D7000147
:10590000000CEACFD1F1E9CFD0F10101CA39F00999
:10591000CC6FCC27E20FCD6F320FCF6FCA510F0B78
:10592000CD27CD27CF27E90FCE6FCE27CE27C93978
:105930000F0BCE27CF27CE37CF37CF1FCF37C95149
:105940000F0BCF27CC37070ECB6F0A0ECE07CF2712
:10595000FDE3CD07CE27FDE3CC07CD27FDE3CB0745
:10596000CC27FDE3010EEA6ECB0EE96E070ED015D3
:10597000D09DE926CF0EE95CD8B4D08DEF50006EF3
:1059800008E1D0BD06D0D0B90CD0D0B702D0200EDF
:1059900003D0D087D099300E002600509EA8FED7A5
:1059A000AD6EEE50D0ADE6D70001000C0101CA5338
:1059B0000CE07BC1D7FF7AC1D6FFF28A9D907D6B48
:1059C000090E7C6F816B806F01D0F29A0001000C90
:1059D000010177A174D0400E0001C1EC27F0A3C1F2
:1059E000CBF1080E0101CC6F00016CDD2C0E9EA8DE
:1059F000FED7AD6E0A0EE96E70C1CCF16FC1CBF16E
:105A0000CFDD2C0E9EA8FED7AD6E030EE96ECAC088
:105A1000CCF1C9C0CBF1C8C0CAF1C7C0C9F10101FE
:105A2000CD6F000190DE2C0E9EA8FED7AD6E030E4A
:105A3000E96ED2C0CCF1D1C0CBF1D0C0CAF1CFC099
:105A4000C9F10101CD6F00017EDE2C0E9EA8FED7AC
:105A5000AD6E030EE96ECEC0CCF1CDC0CBF1CCC0A3
:105A6000CAF1CBC0C9F10101CD6F00016CDE2C0E73
:105A70009EA8FED7AD6E82C1CBF1010E0101CC6FA5
:105A8000000120DD2C0E9EA8FED7AD6E0A0EE96E39
:105A9000D4C0CAF1D3C0C9F134DF2C0E9EA8FED702
:105AA000AD6E0D0E9EA8FED7AD6E01017791010E71
:105AB000CA6F00017BDF3C0EC1EC27F0010177A328
:105AC000CFD0400E0001C1EC27F0A3C1CBF1080EEE
:105AD0000101CC6F0001F6DC2C0E9EA8FED7AD6E46
